{
  "contractName": "Policy",
  "abi": [
    {
      "constant": false,
      "inputs": [
        {
          "name": "username",
          "type": "string"
        },
        {
          "name": "doc",
          "type": "string"
        },
        {
          "name": "docname",
          "type": "string"
        },
        {
          "name": "rights",
          "type": "string"
        }
      ],
      "name": "AddPolicy",
      "outputs": [],
      "payable": false,
      "stateMutability": "nonpayable",
      "type": "function"
    },
    {
      "constant": true,
      "inputs": [
        {
          "name": "username",
          "type": "string"
        }
      ],
      "name": "getUserPolicyCount",
      "outputs": [
        {
          "name": "",
          "type": "uint256"
        }
      ],
      "payable": false,
      "stateMutability": "view",
      "type": "function"
    }
  ],
  "bytecode": "0x608060405234801561001057600080fd5b5061078d806100206000396000f3fe608060405234801561001057600080fd5b50600436106100365760003560e01c80630ba1ab631461003b578063ce8280a2146102bb575b600080fd5b6102b96004803603608081101561005157600080fd5b810190808035906020019064010000000081111561006e57600080fd5b82018360208201111561008057600080fd5b803590602001918460018302840111640100000000831117156100a257600080fd5b91908080601f016020809104026020016040519081016040528093929190818152602001838380828437600081840152601f19601f8201169050808301925050505050505091929192908035906020019064010000000081111561010557600080fd5b82018360208201111561011757600080fd5b8035906020019184600183028401116401000000008311171561013957600080fd5b91908080601f016020809104026020016040519081016040528093929190818152602001838380828437600081840152601f19601f8201169050808301925050505050505091929192908035906020019064010000000081111561019c57600080fd5b8201836020820111156101ae57600080fd5b803590602001918460018302840111640100000000831117156101d057600080fd5b91908080601f016020809104026020016040519081016040528093929190818152602001838380828437600081840152601f19601f8201169050808301925050505050505091929192908035906020019064010000000081111561023357600080fd5b82018360208201111561024557600080fd5b8035906020019184600183028401116401000000008311171561026757600080fd5b91908080601f016020809104026020016040519081016040528093929190818152602001838380828437600081840152601f19601f82011690508083019250505050505050919291929050505061038a565b005b610374600480360360208110156102d157600080fd5b81019080803590602001906401000000008111156102ee57600080fd5b82018360208201111561030057600080fd5b8035906020019184600183028401116401000000008311171561032257600080fd5b91908080601f016020809104026020016040519081016040528093929190818152602001838380828437600081840152601f19601f82011690508083019250505050505050919291929050505061064a565b6040518082815260200191505060405180910390f35b6001846040518082805190602001908083835b602083106103c0578051825260208201915060208101905060208303925061039d565b6001836020036101000a03801982511681845116808217855250505050505090500191505090815260200160405180910390206040518060600160405280858152602001848152602001838152509080600181540180825580915050906001820390600052602060002090600302016000909192909190915060008201518160000190805190602001906104559291906106bc565b5060208201518160010190805190602001906104729291906106bc565b50604082015181600201908051906020019061048f9291906106bc565b5050505060016000856040518082805190602001908083835b602083106104cb57805182526020820191506020810190506020830392506104a8565b6001836020036101000a038019825116818451168082178552505050505050905001915050908152602001604051809103902054016000856040518082805190602001908083835b602083106105365780518252602082019150602081019050602083039250610513565b6001836020036101000a0380198251168184511680821785525050505050509050019150509081526020016040518091039020819055506000846040518082805190602001908083835b602083106105a35780518252602082019150602081019050602083039250610580565b6001836020036101000a0380198251168184511680821785525050505050509050019150509081526020016040518091039020546000856040518082805190602001908083835b6020831061060d57805182526020820191506020810190506020830392506105ea565b6001836020036101000a03801982511681845116808217855250505050505090500191505090815260200160405180910390208190555050505050565b600080826040518082805190602001908083835b60208310610681578051825260208201915060208101905060208303925061065e565b6001836020036101000a0380198251168184511680821785525050505050509050019150509081526020016040518091039020549050919050565b828054600181600116156101000203166002900490600052602060002090601f016020900481019282601f106106fd57805160ff191683800117855561072b565b8280016001018555821561072b579182015b8281111561072a57825182559160200191906001019061070f565b5b509050610738919061073c565b5090565b61075e91905b8082111561075a576000816000905550600101610742565b5090565b9056fea165627a7a723058207c2f4c3264349b6334ee68ab6b6267f7a20cc084077db6ff8936a879c43e62f60029",
  "source": "pragma solidity ^0.5.0;\r\n\r\ncontract Policy{\r\n    struct AccessRights{\r\n        string docname;\r\n        string doc;\r\n        string rights;\r\n    }\r\n    mapping(string => uint) UserPolicyCountMap;\r\n    mapping(string => AccessRights[]) policy;\r\n    function AddPolicy( string memory username, string memory doc, string memory docname,string memory rights) public {\r\n        policy[username].push(AccessRights(doc,docname,rights));\r\n        UserPolicyCountMap[username] = UserPolicyCountMap[username]+1;\r\n        UserPolicyCountMap[username] = UserPolicyCountMap[username];\r\n    }\r\n\r\n    function getUserPolicyCount(string memory username) public view  returns(uint){\r\n        return UserPolicyCountMap[username];\r\n    }\r\n}",
  "sourcePath": "D:/PANKTI/B.E/Project/SmartMed/src/contracts/Policy.sol",
  "compiler": {
    "name": "solc",
    "version": "0.5.8+commit.23d335f2.Emscripten.clang"
  },
  "schemaVersion": "3.0.16",
  "updatedAt": "2020-03-25T11:01:47.574Z",
  "devdoc": {
    "methods": {}
  },
  "userdoc": {
    "methods": {}
  }
}