{
  "contractName": "Policy",
  "abi": [
    {
      "constant": false,
      "inputs": [
        {
          "name": "username",
          "type": "string"
        },
        {
          "name": "doc",
          "type": "string"
        },
        {
          "name": "docname",
          "type": "string"
        },
        {
          "name": "rights",
          "type": "string"
        }
      ],
      "name": "AddPolicy",
      "outputs": [],
      "payable": false,
      "stateMutability": "nonpayable",
      "type": "function"
    },
    {
      "constant": true,
      "inputs": [
        {
          "name": "username",
          "type": "string"
        }
      ],
      "name": "getUserPolicyCount",
      "outputs": [
        {
          "name": "",
          "type": "uint256"
        }
      ],
      "payable": false,
      "stateMutability": "view",
      "type": "function"
    }
  ],
  "bytecode": "0x608060405234801561001057600080fd5b506107ca806100206000396000f3fe60806040526004361061004c576000357c0100000000000000000000000000000000000000000000000000000000900463ffffffff1680630ba1ab6314610051578063ce8280a2146102de575b600080fd5b34801561005d57600080fd5b506102dc6004803603608081101561007457600080fd5b810190808035906020019064010000000081111561009157600080fd5b8201836020820111156100a357600080fd5b803590602001918460018302840111640100000000831117156100c557600080fd5b91908080601f016020809104026020016040519081016040528093929190818152602001838380828437600081840152601f19601f8201169050808301925050505050505091929192908035906020019064010000000081111561012857600080fd5b82018360208201111561013a57600080fd5b8035906020019184600183028401116401000000008311171561015c57600080fd5b91908080601f016020809104026020016040519081016040528093929190818152602001838380828437600081840152601f19601f820116905080830192505050505050509192919290803590602001906401000000008111156101bf57600080fd5b8201836020820111156101d157600080fd5b803590602001918460018302840111640100000000831117156101f357600080fd5b91908080601f016020809104026020016040519081016040528093929190818152602001838380828437600081840152601f19601f8201169050808301925050505050505091929192908035906020019064010000000081111561025657600080fd5b82018360208201111561026857600080fd5b8035906020019184600183028401116401000000008311171561028a57600080fd5b91908080601f016020809104026020016040519081016040528093929190818152602001838380828437600081840152601f19601f8201169050808301925050505050505091929192905050506103ba565b005b3480156102ea57600080fd5b506103a46004803603602081101561030157600080fd5b810190808035906020019064010000000081111561031e57600080fd5b82018360208201111561033057600080fd5b8035906020019184600183028401116401000000008311171561035257600080fd5b91908080601f016020809104026020016040519081016040528093929190818152602001838380828437600081840152601f19601f820116905080830192505050505050509192919290505050610685565b6040518082815260200191505060405180910390f35b6001846040518082805190602001908083835b6020831015156103f257805182526020820191506020810190506020830392506103cd565b6001836020036101000a0380198251168184511680821785525050505050509050019150509081526020016040518091039020606060405190810160405280858152602001848152602001838152509080600181540180825580915050906001820390600052602060002090600302016000909192909190915060008201518160000190805190602001906104889291906106f9565b5060208201518160010190805190602001906104a59291906106f9565b5060408201518160020190805190602001906104c29291906106f9565b5050505060016000856040518082805190602001908083835b60208310151561050057805182526020820191506020810190506020830392506104db565b6001836020036101000a038019825116818451168082178552505050505050905001915050908152602001604051809103902054016000856040518082805190602001908083835b60208310151561056d5780518252602082019150602081019050602083039250610548565b6001836020036101000a0380198251168184511680821785525050505050509050019150509081526020016040518091039020819055506000846040518082805190602001908083835b6020831015156105dc57805182526020820191506020810190506020830392506105b7565b6001836020036101000a0380198251168184511680821785525050505050509050019150509081526020016040518091039020546000856040518082805190602001908083835b6020831015156106485780518252602082019150602081019050602083039250610623565b6001836020036101000a03801982511681845116808217855250505050505090500191505090815260200160405180910390208190555050505050565b600080826040518082805190602001908083835b6020831015156106be5780518252602082019150602081019050602083039250610699565b6001836020036101000a0380198251168184511680821785525050505050509050019150509081526020016040518091039020549050919050565b828054600181600116156101000203166002900490600052602060002090601f016020900481019282601f1061073a57805160ff1916838001178555610768565b82800160010185558215610768579182015b8281111561076757825182559160200191906001019061074c565b5b5090506107759190610779565b5090565b61079b91905b8082111561079757600081600090555060010161077f565b5090565b9056fea165627a7a72305820b41ba26fb67f3aeb8a26087a05ce2397f778cb53a42485bb8c0ef511143c208f0029",
  "source": "pragma solidity ^0.5.0;\n\ncontract Policy{\n    struct AccessRights{\n        string docname;\n        string doc;\n        string rights;\n    }\n    mapping(string => uint) UserPolicyCountMap;\n    mapping(string => AccessRights[]) policy;\n    function AddPolicy( string memory username, string memory doc, string memory docname,string memory rights) public {\n        policy[username].push(AccessRights(doc,docname,rights));\n        UserPolicyCountMap[username] = UserPolicyCountMap[username]+1;\n        UserPolicyCountMap[username] = UserPolicyCountMap[username];\n    }\n\n    function getUserPolicyCount(string memory username) public view  returns(uint){\n        return UserPolicyCountMap[username];\n    }\n}",
  "sourcePath": "C:/Users/Vridhi/Desktop/B.Tech Project/SmartMed/src/contracts/Policy.sol",
  "compiler": {
    "name": "solc",
    "version": "0.5.0+commit.1d4f565a.Emscripten.clang"
  },
  "schemaVersion": "3.0.2",
  "updatedAt": "2020-03-26T06:44:38.231Z",
  "devdoc": {
    "methods": {}
  },
  "userdoc": {
    "methods": {}
  }
}