{
  "contractName": "Store",
  "abi": [
    {
      "constant": false,
      "inputs": [
        {
          "name": "_id",
          "type": "string"
        },
        {
          "name": "_fileName",
          "type": "string"
        },
        {
          "name": "_date",
          "type": "string"
        },
        {
          "name": "_fileHash",
          "type": "string"
        }
      ],
      "name": "set",
      "outputs": [],
      "payable": false,
      "stateMutability": "nonpayable",
      "type": "function"
    },
    {
      "constant": true,
      "inputs": [
        {
          "name": "_id",
          "type": "string"
        }
      ],
      "name": "get",
      "outputs": [
        {
          "components": [
            {
              "name": "fileName",
              "type": "string"
            },
            {
              "name": "date",
              "type": "string"
            },
            {
              "name": "fileHash",
              "type": "string"
            }
          ],
          "name": "",
          "type": "tuple[]"
        }
      ],
      "payable": false,
      "stateMutability": "view",
      "type": "function"
    },
    {
      "constant": true,
      "inputs": [
        {
          "name": "_id",
          "type": "string"
        }
      ],
      "name": "getCount",
      "outputs": [
        {
          "name": "",
          "type": "uint256"
        }
      ],
      "payable": false,
      "stateMutability": "view",
      "type": "function"
    },
    {
      "constant": false,
      "inputs": [
        {
          "name": "_id",
          "type": "string"
        }
      ],
      "name": "clear",
      "outputs": [],
      "payable": false,
      "stateMutability": "nonpayable",
      "type": "function"
    }
  ],
  "bytecode": "0x608060405234801561001057600080fd5b50610a6c806100206000396000f3fe608060405234801561001057600080fd5b506004361061004c5760003560e01c806316cf503e14610051578063693ec85e1461006d578063f001a5511461009d578063f60886b5146100cd575b600080fd5b61006b6004803603610066919081019061065c565b6100e9565b005b6100876004803603610082919081019061065c565b610116565b60405161009491906108d7565b60405180910390f35b6100b760048036036100b2919081019061065c565b610379565b6040516100c491906108f9565b60405180910390f35b6100e760048036036100e2919081019061069d565b6103a0565b005b6001816040516100f991906108c0565b9081526020016040518091039020600061011391906104a8565b50565b606060018260405161012891906108c0565b9081526020016040518091039020805480602002602001604051908101604052809291908181526020016000905b8282101561036e5783829060005260206000209060030201604051806060016040529081600082018054600181600116156101000203166002900480601f0160208091040260200160405190810160405280929190818152602001828054600181600116156101000203166002900480156102125780601f106101e757610100808354040283529160200191610212565b820191906000526020600020905b8154815290600101906020018083116101f557829003601f168201915b50505050508152602001600182018054600181600116156101000203166002900480601f0160208091040260200160405190810160405280929190818152602001828054600181600116156101000203166002900480156102b45780601f10610289576101008083540402835291602001916102b4565b820191906000526020600020905b81548152906001019060200180831161029757829003601f168201915b50505050508152602001600282018054600181600116156101000203166002900480601f0160208091040260200160405190810160405280929190818152602001828054600181600116156101000203166002900480156103565780601f1061032b57610100808354040283529160200191610356565b820191906000526020600020905b81548152906001019060200180831161033957829003601f168201915b50505050508152505081526020019060010190610156565b505050509050919050565b6000808260405161038a91906108c0565b9081526020016040518091039020549050919050565b6001846040516103b091906108c0565b90815260200160405180910390206040518060600160405280858152602001848152602001838152509080600181540180825580915050906001820390600052602060002090600302016000909192909190915060008201518160000190805190602001906104209291906104cc565b50602082015181600101908051906020019061043d9291906104cc565b50604082015181600201908051906020019061045a9291906104cc565b50505050600160008560405161047091906108c0565b9081526020016040518091039020540160008560405161049091906108c0565b90815260200160405180910390208190555050505050565b50805460008255600302906000526020600020908101906104c9919061054c565b50565b828054600181600116156101000203166002900490600052602060002090601f016020900481019282601f1061050d57805160ff191683800117855561053b565b8280016001018555821561053b579182015b8281111561053a57825182559160200191906001019061051f565b5b509050610548919061059b565b5090565b61059891905b80821115610594576000808201600061056b91906105c0565b60018201600061057b91906105c0565b60028201600061058b91906105c0565b50600301610552565b5090565b90565b6105bd91905b808211156105b95760008160009055506001016105a1565b5090565b90565b50805460018160011615610100020316600290046000825580601f106105e65750610605565b601f016020900490600052602060002090810190610604919061059b565b5b50565b600082601f83011261061957600080fd5b813561062c61062782610941565b610914565b9150808252602083016020830185838301111561064857600080fd5b6106538382846109df565b50505092915050565b60006020828403121561066e57600080fd5b600082013567ffffffffffffffff81111561068857600080fd5b61069484828501610608565b91505092915050565b600080600080608085870312156106b357600080fd5b600085013567ffffffffffffffff8111156106cd57600080fd5b6106d987828801610608565b945050602085013567ffffffffffffffff8111156106f657600080fd5b61070287828801610608565b935050604085013567ffffffffffffffff81111561071f57600080fd5b61072b87828801610608565b925050606085013567ffffffffffffffff81111561074857600080fd5b61075487828801610608565b91505092959194509250565b600061076c8383610853565b905092915050565b600061077f8261097a565b61078981856109a8565b93508360208202850161079b8561096d565b8060005b858110156107d757848403895281516107b88582610760565b94506107c38361099b565b925060208a0199505060018101905061079f565b50829750879550505050505092915050565b60006107f482610990565b6107fe81856109ca565b935061080e8185602086016109ee565b80840191505092915050565b600061082582610985565b61082f81856109b9565b935061083f8185602086016109ee565b61084881610a21565b840191505092915050565b60006060830160008301518482036000860152610870828261081a565b9150506020830151848203602086015261088a828261081a565b915050604083015184820360408601526108a4828261081a565b9150508091505092915050565b6108ba816109d5565b82525050565b60006108cc82846107e9565b915081905092915050565b600060208201905081810360008301526108f18184610774565b905092915050565b600060208201905061090e60008301846108b1565b92915050565b6000604051905081810181811067ffffffffffffffff8211171561093757600080fd5b8060405250919050565b600067ffffffffffffffff82111561095857600080fd5b601f19601f8301169050602081019050919050565b6000602082019050919050565b600081519050919050565b600081519050919050565b600081519050919050565b6000602082019050919050565b600082825260208201905092915050565b600082825260208201905092915050565b600081905092915050565b6000819050919050565b82818337600083830152505050565b60005b83811015610a0c5780820151818401526020810190506109f1565b83811115610a1b576000848401525b50505050565b6000601f19601f830116905091905056fea265627a7a72305820c9590bc328ee54c5a013bfff7ed5259f992a6ae0539b8a83f661c65c211fca976c6578706572696d656e74616cf50037",
  "source": "pragma solidity ^0.5.0;\r\npragma experimental ABIEncoderV2;\r\n\r\ncontract Store {\r\n  struct Record{\r\n    string fileName;\r\n    string date;\r\n    string fileHash;\r\n  }\r\n  mapping(string => uint) RecordCount;\r\n  mapping(string => Record[]) medicalHistory;\r\n  function set(string memory _id, string memory _fileName, string memory _date, string memory _fileHash) public {\r\n    medicalHistory[_id].push(Record(_fileName,_date,_fileHash));\r\n    RecordCount[_id] = RecordCount[_id]+1;\r\n    // UserPolicyCountMap[username] = UserPolicyCountMap[username];\r\n  }\r\n\r\n  function get(string memory _id) public view returns (Record[] memory) {\r\n    return medicalHistory[_id];\r\n  }\r\n\r\n  function getCount(string memory _id) public view  returns (uint) {\r\n    return RecordCount[_id];\r\n  }\r\n\r\n  function clear(string memory _id) public {\r\n    delete medicalHistory[_id];\r\n  }\r\n}",
  "sourcePath": "D:/PANKTI/B.E/Project/store/src/contracts/Store.sol",
  "compiler": {
    "name": "solc",
    "version": "0.5.8+commit.23d335f2.Emscripten.clang"
  },
  "schemaVersion": "3.0.16",
  "updatedAt": "2020-03-08T19:36:29.022Z",
  "devdoc": {
    "methods": {}
  },
  "userdoc": {
    "methods": {}
  }
}