{
  "contractName": "Store",
  "abi": [
    {
      "constant": false,
      "inputs": [
        {
          "name": "_id",
          "type": "string"
        },
        {
          "name": "_fileName",
          "type": "string"
        },
        {
          "name": "_date",
          "type": "string"
        },
        {
          "name": "_fileHash",
          "type": "string"
        },
        {
          "name": "_by",
          "type": "string"
        }
      ],
      "name": "set",
      "outputs": [],
      "payable": false,
      "stateMutability": "nonpayable",
      "type": "function",
      "signature": "0x1a0b8d55"
    },
    {
      "constant": true,
      "inputs": [
        {
          "name": "_id",
          "type": "string"
        }
      ],
      "name": "get",
      "outputs": [
        {
          "components": [
            {
              "name": "fileName",
              "type": "string"
            },
            {
              "name": "date",
              "type": "string"
            },
            {
              "name": "fileHash",
              "type": "string"
            },
            {
              "name": "by",
              "type": "string"
            }
          ],
          "name": "",
          "type": "tuple[]"
        }
      ],
      "payable": false,
      "stateMutability": "view",
      "type": "function",
      "signature": "0x693ec85e"
    },
    {
      "constant": true,
      "inputs": [
        {
          "name": "_id",
          "type": "string"
        }
      ],
      "name": "getCount",
      "outputs": [
        {
          "name": "",
          "type": "uint256"
        }
      ],
      "payable": false,
      "stateMutability": "view",
      "type": "function",
      "signature": "0xf001a551"
    },
    {
      "constant": false,
      "inputs": [
        {
          "name": "_id",
          "type": "string"
        }
      ],
      "name": "clear",
      "outputs": [],
      "payable": false,
      "stateMutability": "nonpayable",
      "type": "function",
      "signature": "0x16cf503e"
    }
  ],
  "bytecode": "0x608060405234801561001057600080fd5b50610c2b806100206000396000f3fe608060405260043610610062576000357c0100000000000000000000000000000000000000000000000000000000900463ffffffff16806316cf503e146100675780631a0b8d5514610090578063693ec85e146100b9578063f001a551146100f6575b600080fd5b34801561007357600080fd5b5061008e60048036036100899190810190610873565b610133565b005b34801561009c57600080fd5b506100b760048036036100b291908101906108b4565b6101ad565b005b3480156100c557600080fd5b506100e060048036036100db9190810190610873565b6102e3565b6040516100ed9190610ace565b60405180910390f35b34801561010257600080fd5b5061011d60048036036101189190810190610873565b610636565b60405161012a9190610af0565b60405180910390f35b6000816040518082805190602001908083835b60208310151561016b5780518252602082019150602081019050602083039250610146565b6001836020036101000a038019825116818451168082178552505050505050905001915050908152602001604051809103902060006101aa91906106ad565b50565b6000856040518082805190602001908083835b6020831015156101e557805182526020820191506020810190506020830392506101c0565b6001836020036101000a0380198251168184511680821785525050505050509050019150509081526020016040518091039020608060405190810160405280868152602001858152602001848152602001838152509080600181540180825580915050906001820390600052602060002090600402016000909192909190915060008201518160000190805190602001906102819291906106d1565b50602082015181600101908051906020019061029e9291906106d1565b5060408201518160020190805190602001906102bb9291906106d1565b5060608201518160030190805190602001906102d89291906106d1565b505050505050505050565b60606000826040518082805190602001908083835b60208310151561031d57805182526020820191506020810190506020830392506102f8565b6001836020036101000a0380198251168184511680821785525050505050509050019150509081526020016040518091039020805480602002602001604051908101604052809291908181526020016000905b8282101561062b578382906000526020600020906004020160806040519081016040529081600082018054600181600116156101000203166002900480601f01602080910402602001604051908101604052809291908181526020018280546001816001161561010002031660029004801561042d5780601f106104025761010080835404028352916020019161042d565b820191906000526020600020905b81548152906001019060200180831161041057829003601f168201915b50505050508152602001600182018054600181600116156101000203166002900480601f0160208091040260200160405190810160405280929190818152602001828054600181600116156101000203166002900480156104cf5780601f106104a4576101008083540402835291602001916104cf565b820191906000526020600020905b8154815290600101906020018083116104b257829003601f168201915b50505050508152602001600282018054600181600116156101000203166002900480601f0160208091040260200160405190810160405280929190818152602001828054600181600116156101000203166002900480156105715780601f1061054657610100808354040283529160200191610571565b820191906000526020600020905b81548152906001019060200180831161055457829003601f168201915b50505050508152602001600382018054600181600116156101000203166002900480601f0160208091040260200160405190810160405280929190818152602001828054600181600116156101000203166002900480156106135780601f106105e857610100808354040283529160200191610613565b820191906000526020600020905b8154815290600101906020018083116105f657829003601f168201915b50505050508152505081526020019060010190610370565b505050509050919050565b600080826040518082805190602001908083835b60208310151561066f578051825260208201915060208101905060208303925061064a565b6001836020036101000a0380198251168184511680821785525050505050509050019150509081526020016040518091039020805490509050919050565b50805460008255600402906000526020600020908101906106ce9190610751565b50565b828054600181600116156101000203166002900490600052602060002090601f016020900481019282601f1061071257805160ff1916838001178555610740565b82800160010185558215610740579182015b8281111561073f578251825591602001919060010190610724565b5b50905061074d91906107b0565b5090565b6107ad91905b808211156107a9576000808201600061077091906107d5565b60018201600061078091906107d5565b60028201600061079091906107d5565b6003820160006107a091906107d5565b50600401610757565b5090565b90565b6107d291905b808211156107ce5760008160009055506001016107b6565b5090565b90565b50805460018160011615610100020316600290046000825580601f106107fb575061081a565b601f01602090049060005260206000209081019061081991906107b0565b5b50565b600082601f830112151561083057600080fd5b813561084361083e82610b38565b610b0b565b9150808252602083016020830185838301111561085f57600080fd5b61086a838284610b9e565b50505092915050565b60006020828403121561088557600080fd5b600082013567ffffffffffffffff81111561089f57600080fd5b6108ab8482850161081d565b91505092915050565b600080600080600060a086880312156108cc57600080fd5b600086013567ffffffffffffffff8111156108e657600080fd5b6108f28882890161081d565b955050602086013567ffffffffffffffff81111561090f57600080fd5b61091b8882890161081d565b945050604086013567ffffffffffffffff81111561093857600080fd5b6109448882890161081d565b935050606086013567ffffffffffffffff81111561096157600080fd5b61096d8882890161081d565b925050608086013567ffffffffffffffff81111561098a57600080fd5b6109968882890161081d565b9150509295509295909350565b60006109ae82610b71565b808452602084019350836020820285016109c785610b64565b60005b84811015610a005783830388526109e2838351610a47565b92506109ed82610b87565b91506020880197506001810190506109ca565b508196508694505050505092915050565b6000610a1c82610b7c565b808452610a30816020860160208601610bad565b610a3981610be0565b602085010191505092915050565b60006080830160008301518482036000860152610a648282610a11565b91505060208301518482036020860152610a7e8282610a11565b91505060408301518482036040860152610a988282610a11565b91505060608301518482036060860152610ab28282610a11565b9150508091505092915050565b610ac881610b94565b82525050565b60006020820190508181036000830152610ae881846109a3565b905092915050565b6000602082019050610b056000830184610abf565b92915050565b6000604051905081810181811067ffffffffffffffff82111715610b2e57600080fd5b8060405250919050565b600067ffffffffffffffff821115610b4f57600080fd5b601f19601f8301169050602081019050919050565b6000602082019050919050565b600081519050919050565b600081519050919050565b6000602082019050919050565b6000819050919050565b82818337600083830152505050565b60005b83811015610bcb578082015181840152602081019050610bb0565b83811115610bda576000848401525b50505050565b6000601f19601f830116905091905056fea265627a7a72305820a438a0f1d7698d390e8636fa498333a97ffa015db805073127d6daf6731dd4e96c6578706572696d656e74616cf50037",
  "source": "pragma solidity ^0.5.0;\npragma experimental ABIEncoderV2;\n\ncontract Store {\n  struct Record{\n    string fileName;\n    string date;\n    string fileHash;\n    string by;\n  }\n  mapping(string => Record[]) medicalHistory;\n  function set(string memory _id, string memory _fileName, string memory _date, string memory _fileHash, string memory _by) public {\n    medicalHistory[_id].push(Record(_fileName,_date,_fileHash,_by));\n  }\n\n  function get(string memory _id) public view returns (Record[] memory) {\n    return medicalHistory[_id];\n  }\n\n  function getCount(string memory _id) public view  returns (uint) {\n    return medicalHistory[_id].length;\n  }\n\n  function clear(string memory _id) public {\n    delete medicalHistory[_id];\n  }\n}",
  "sourcePath": "C:/Users/Vridhi/Desktop/B.Tech Project/SmartMed/src/contracts/Store.sol",
  "compiler": {
    "name": "solc",
    "version": "0.5.0+commit.1d4f565a.Emscripten.clang"
  },
  "schemaVersion": "3.0.2",
  "updatedAt": "2020-03-26T09:05:27.941Z",
  "devdoc": {
    "methods": {}
  },
  "userdoc": {
    "methods": {}
  }
}