{
  "contractName": "Store",
  "abi": [
    {
      "constant": false,
      "inputs": [
        {
          "name": "_id",
          "type": "string"
        },
        {
          "name": "_fileName",
          "type": "string"
        },
        {
          "name": "_date",
          "type": "string"
        },
        {
          "name": "_fileHash",
          "type": "string"
        },
        {
          "name": "_by",
          "type": "string"
        }
      ],
      "name": "set",
      "outputs": [],
      "payable": false,
      "stateMutability": "nonpayable",
      "type": "function"
    },
    {
      "constant": true,
      "inputs": [
        {
          "name": "_id",
          "type": "string"
        }
      ],
      "name": "get",
      "outputs": [
        {
          "components": [
            {
              "name": "fileName",
              "type": "string"
            },
            {
              "name": "date",
              "type": "string"
            },
            {
              "name": "fileHash",
              "type": "string"
            },
            {
              "name": "by",
              "type": "string"
            }
          ],
          "name": "",
          "type": "tuple[]"
        }
      ],
      "payable": false,
      "stateMutability": "view",
      "type": "function"
    },
    {
      "constant": true,
      "inputs": [
        {
          "name": "_id",
          "type": "string"
        }
      ],
      "name": "getCount",
      "outputs": [
        {
          "name": "",
          "type": "uint256"
        }
      ],
      "payable": false,
      "stateMutability": "view",
      "type": "function"
    },
    {
      "constant": false,
      "inputs": [
        {
          "name": "_id",
          "type": "string"
        }
      ],
      "name": "clear",
      "outputs": [],
      "payable": false,
      "stateMutability": "nonpayable",
      "type": "function"
    }
  ],
  "bytecode": "0x608060405234801561001057600080fd5b50610b47806100206000396000f3fe608060405234801561001057600080fd5b506004361061004c5760003560e01c806316cf503e146100515780631a0b8d551461006d578063693ec85e14610089578063f001a551146100b9575b600080fd5b61006b600480360361006691908101906106f1565b6100e9565b005b61008760048036036100829190810190610732565b610116565b005b6100a3600480360361009e91908101906106f1565b6101fe565b6040516100b091906109b2565b60405180910390f35b6100d360048036036100ce91908101906106f1565b610503565b6040516100e091906109d4565b60405180910390f35b6000816040516100f9919061099b565b90815260200160405180910390206000610113919061052d565b50565b600085604051610126919061099b565b908152602001604051809103902060405180608001604052808681526020018581526020018481526020018381525090806001815401808255809150509060018203906000526020600020906004020160009091929091909150600082015181600001908051906020019061019c929190610551565b5060208201518160010190805190602001906101b9929190610551565b5060408201518160020190805190602001906101d6929190610551565b5060608201518160030190805190602001906101f3929190610551565b505050505050505050565b6060600082604051610210919061099b565b9081526020016040518091039020805480602002602001604051908101604052809291908181526020016000905b828210156104f85783829060005260206000209060040201604051806080016040529081600082018054600181600116156101000203166002900480601f0160208091040260200160405190810160405280929190818152602001828054600181600116156101000203166002900480156102fa5780601f106102cf576101008083540402835291602001916102fa565b820191906000526020600020905b8154815290600101906020018083116102dd57829003601f168201915b50505050508152602001600182018054600181600116156101000203166002900480601f01602080910402602001604051908101604052809291908181526020018280546001816001161561010002031660029004801561039c5780601f106103715761010080835404028352916020019161039c565b820191906000526020600020905b81548152906001019060200180831161037f57829003601f168201915b50505050508152602001600282018054600181600116156101000203166002900480601f01602080910402602001604051908101604052809291908181526020018280546001816001161561010002031660029004801561043e5780601f106104135761010080835404028352916020019161043e565b820191906000526020600020905b81548152906001019060200180831161042157829003601f168201915b50505050508152602001600382018054600181600116156101000203166002900480601f0160208091040260200160405190810160405280929190818152602001828054600181600116156101000203166002900480156104e05780601f106104b5576101008083540402835291602001916104e0565b820191906000526020600020905b8154815290600101906020018083116104c357829003601f168201915b5050505050815250508152602001906001019061023e565b505050509050919050565b60008082604051610514919061099b565b9081526020016040518091039020805490509050919050565b508054600082556004029060005260206000209081019061054e91906105d1565b50565b828054600181600116156101000203166002900490600052602060002090601f016020900481019282601f1061059257805160ff19168380011785556105c0565b828001600101855582156105c0579182015b828111156105bf5782518255916020019190600101906105a4565b5b5090506105cd9190610630565b5090565b61062d91905b8082111561062957600080820160006105f09190610655565b6001820160006106009190610655565b6002820160006106109190610655565b6003820160006106209190610655565b506004016105d7565b5090565b90565b61065291905b8082111561064e576000816000905550600101610636565b5090565b90565b50805460018160011615610100020316600290046000825580601f1061067b575061069a565b601f0160209004906000526020600020908101906106999190610630565b5b50565b600082601f8301126106ae57600080fd5b81356106c16106bc82610a1c565b6109ef565b915080825260208301602083018583830111156106dd57600080fd5b6106e8838284610aba565b50505092915050565b60006020828403121561070357600080fd5b600082013567ffffffffffffffff81111561071d57600080fd5b6107298482850161069d565b91505092915050565b600080600080600060a0868803121561074a57600080fd5b600086013567ffffffffffffffff81111561076457600080fd5b6107708882890161069d565b955050602086013567ffffffffffffffff81111561078d57600080fd5b6107998882890161069d565b945050604086013567ffffffffffffffff8111156107b657600080fd5b6107c28882890161069d565b935050606086013567ffffffffffffffff8111156107df57600080fd5b6107eb8882890161069d565b925050608086013567ffffffffffffffff81111561080857600080fd5b6108148882890161069d565b9150509295509295909350565b600061082d8383610914565b905092915050565b600061084082610a55565b61084a8185610a83565b93508360208202850161085c85610a48565b8060005b8581101561089857848403895281516108798582610821565b945061088483610a76565b925060208a01995050600181019050610860565b50829750879550505050505092915050565b60006108b582610a6b565b6108bf8185610aa5565b93506108cf818560208601610ac9565b80840191505092915050565b60006108e682610a60565b6108f08185610a94565b9350610900818560208601610ac9565b61090981610afc565b840191505092915050565b6000608083016000830151848203600086015261093182826108db565b9150506020830151848203602086015261094b82826108db565b9150506040830151848203604086015261096582826108db565b9150506060830151848203606086015261097f82826108db565b9150508091505092915050565b61099581610ab0565b82525050565b60006109a782846108aa565b915081905092915050565b600060208201905081810360008301526109cc8184610835565b905092915050565b60006020820190506109e9600083018461098c565b92915050565b6000604051905081810181811067ffffffffffffffff82111715610a1257600080fd5b8060405250919050565b600067ffffffffffffffff821115610a3357600080fd5b601f19601f8301169050602081019050919050565b6000602082019050919050565b600081519050919050565b600081519050919050565b600081519050919050565b6000602082019050919050565b600082825260208201905092915050565b600082825260208201905092915050565b600081905092915050565b6000819050919050565b82818337600083830152505050565b60005b83811015610ae7578082015181840152602081019050610acc565b83811115610af6576000848401525b50505050565b6000601f19601f830116905091905056fea265627a7a7230582009270ccbd080b4f276ec51b20abee20818705ab833757cc1254b8d112576efba6c6578706572696d656e74616cf50037",
  "source": "pragma solidity ^0.5.0;\npragma experimental ABIEncoderV2;\n\ncontract Store {\n  struct Record{\n    string fileName;\n    string date;\n    string fileHash;\n    string by;\n  }\n  mapping(string => Record[]) medicalHistory;\n  function set(string memory _id, string memory _fileName, string memory _date, string memory _fileHash, string memory _by) public {\n    medicalHistory[_id].push(Record(_fileName,_date,_fileHash,_by));\n  }\n\n  function get(string memory _id) public view returns (Record[] memory) {\n    return medicalHistory[_id];\n  }\n\n  function getCount(string memory _id) public view  returns (uint) {\n    return medicalHistory[_id].length;\n  }\n\n  function clear(string memory _id) public {\n    delete medicalHistory[_id];\n  }\n}",
  "sourcePath": "D:/PANKTI/B.E/Project/SmartMed/src/contracts/Store.sol",
  "compiler": {
    "name": "solc",
    "version": "0.5.8+commit.23d335f2.Emscripten.clang"
  },
  "schemaVersion": "3.0.16",
  "updatedAt": "2020-03-28T09:20:26.595Z",
  "devdoc": {
    "methods": {}
  },
  "userdoc": {
    "methods": {}
  }
}