{
  "contractName": "Store",
  "abi": [
    {
      "constant": false,
      "inputs": [
        {
          "name": "_id",
          "type": "string"
        },
        {
          "name": "_encryptedKey",
          "type": "string"
        }
      ],
      "name": "setKey",
      "outputs": [],
      "payable": false,
      "stateMutability": "nonpayable",
      "type": "function"
    },
    {
      "constant": true,
      "inputs": [
        {
          "name": "_id",
          "type": "string"
        }
      ],
      "name": "getKey",
      "outputs": [
        {
          "name": "",
          "type": "string"
        }
      ],
      "payable": false,
      "stateMutability": "view",
      "type": "function"
    },
    {
      "constant": false,
      "inputs": [
        {
          "name": "_id",
          "type": "string"
        },
        {
          "name": "_fileName",
          "type": "string"
        },
        {
          "name": "_date",
          "type": "string"
        },
        {
          "name": "_fileHash",
          "type": "string"
        },
        {
          "name": "_by",
          "type": "string"
        }
      ],
      "name": "set",
      "outputs": [],
      "payable": false,
      "stateMutability": "nonpayable",
      "type": "function"
    },
    {
      "constant": true,
      "inputs": [
        {
          "name": "_id",
          "type": "string"
        }
      ],
      "name": "get",
      "outputs": [
        {
          "components": [
            {
              "name": "fileName",
              "type": "string"
            },
            {
              "name": "date",
              "type": "string"
            },
            {
              "name": "fileHash",
              "type": "string"
            },
            {
              "name": "by",
              "type": "string"
            }
          ],
          "name": "",
          "type": "tuple[]"
        }
      ],
      "payable": false,
      "stateMutability": "view",
      "type": "function"
    },
    {
      "constant": true,
      "inputs": [
        {
          "name": "_id",
          "type": "string"
        }
      ],
      "name": "getCount",
      "outputs": [
        {
          "name": "",
          "type": "uint256"
        }
      ],
      "payable": false,
      "stateMutability": "view",
      "type": "function"
    }
  ],
  "bytecode": "0x608060405234801561001057600080fd5b50610cd9806100206000396000f3fe608060405234801561001057600080fd5b50600436106100575760003560e01c80631a0b8d551461005c578063693ec85e14610078578063d37aec92146100a8578063e6c780dd146100d8578063f001a551146100f4575b600080fd5b61007660048036036100719190810190610858565b610124565b005b610092600480360361008d91908101906107ab565b61020c565b60405161009f9190610b11565b60405180910390f35b6100c260048036036100bd91908101906107ab565b610511565b6040516100cf9190610b33565b60405180910390f35b6100f260048036036100ed91908101906107ec565b6105d1565b005b61010e600480360361010991908101906107ab565b610608565b60405161011b9190610b55565b60405180910390f35b6000856040516101349190610afa565b90815260200160405180910390206040518060800160405280868152602001858152602001848152602001838152509080600181540180825580915050906001820390600052602060002090600402016000909192909190915060008201518160000190805190602001906101aa929190610632565b5060208201518160010190805190602001906101c7929190610632565b5060408201518160020190805190602001906101e4929190610632565b506060820151816003019080519060200190610201929190610632565b505050505050505050565b606060008260405161021e9190610afa565b9081526020016040518091039020805480602002602001604051908101604052809291908181526020016000905b828210156105065783829060005260206000209060040201604051806080016040529081600082018054600181600116156101000203166002900480601f0160208091040260200160405190810160405280929190818152602001828054600181600116156101000203166002900480156103085780601f106102dd57610100808354040283529160200191610308565b820191906000526020600020905b8154815290600101906020018083116102eb57829003601f168201915b50505050508152602001600182018054600181600116156101000203166002900480601f0160208091040260200160405190810160405280929190818152602001828054600181600116156101000203166002900480156103aa5780601f1061037f576101008083540402835291602001916103aa565b820191906000526020600020905b81548152906001019060200180831161038d57829003601f168201915b50505050508152602001600282018054600181600116156101000203166002900480601f01602080910402602001604051908101604052809291908181526020018280546001816001161561010002031660029004801561044c5780601f106104215761010080835404028352916020019161044c565b820191906000526020600020905b81548152906001019060200180831161042f57829003601f168201915b50505050508152602001600382018054600181600116156101000203166002900480601f0160208091040260200160405190810160405280929190818152602001828054600181600116156101000203166002900480156104ee5780601f106104c3576101008083540402835291602001916104ee565b820191906000526020600020905b8154815290600101906020018083116104d157829003601f168201915b5050505050815250508152602001906001019061024c565b505050509050919050565b60606001826040516105239190610afa565b90815260200160405180910390208054600181600116156101000203166002900480601f0160208091040260200160405190810160405280929190818152602001828054600181600116156101000203166002900480156105c55780601f1061059a576101008083540402835291602001916105c5565b820191906000526020600020905b8154815290600101906020018083116105a857829003601f168201915b50505050509050919050565b806001836040516105e29190610afa565b908152602001604051809103902090805190602001906106039291906106b2565b505050565b600080826040516106199190610afa565b9081526020016040518091039020805490509050919050565b828054600181600116156101000203166002900490600052602060002090601f016020900481019282601f1061067357805160ff19168380011785556106a1565b828001600101855582156106a1579182015b828111156106a0578251825591602001919060010190610685565b5b5090506106ae9190610732565b5090565b828054600181600116156101000203166002900490600052602060002090601f016020900481019282601f106106f357805160ff1916838001178555610721565b82800160010185558215610721579182015b82811115610720578251825591602001919060010190610705565b5b50905061072e9190610732565b5090565b61075491905b80821115610750576000816000905550600101610738565b5090565b90565b600082601f83011261076857600080fd5b813561077b61077682610b9d565b610b70565b9150808252602083016020830185838301111561079757600080fd5b6107a2838284610c4c565b50505092915050565b6000602082840312156107bd57600080fd5b600082013567ffffffffffffffff8111156107d757600080fd5b6107e384828501610757565b91505092915050565b600080604083850312156107ff57600080fd5b600083013567ffffffffffffffff81111561081957600080fd5b61082585828601610757565b925050602083013567ffffffffffffffff81111561084257600080fd5b61084e85828601610757565b9150509250929050565b600080600080600060a0868803121561087057600080fd5b600086013567ffffffffffffffff81111561088a57600080fd5b61089688828901610757565b955050602086013567ffffffffffffffff8111156108b357600080fd5b6108bf88828901610757565b945050604086013567ffffffffffffffff8111156108dc57600080fd5b6108e888828901610757565b935050606086013567ffffffffffffffff81111561090557600080fd5b61091188828901610757565b925050608086013567ffffffffffffffff81111561092e57600080fd5b61093a88828901610757565b9150509295509295909350565b60006109538383610a73565b905092915050565b600061096682610bd6565b6109708185610c04565b93508360208202850161098285610bc9565b8060005b858110156109be578484038952815161099f8582610947565b94506109aa83610bf7565b925060208a01995050600181019050610986565b50829750879550505050505092915050565b60006109db82610bec565b6109e58185610c26565b93506109f5818560208601610c5b565b6109fe81610c8e565b840191505092915050565b6000610a1482610bec565b610a1e8185610c37565b9350610a2e818560208601610c5b565b80840191505092915050565b6000610a4582610be1565b610a4f8185610c15565b9350610a5f818560208601610c5b565b610a6881610c8e565b840191505092915050565b60006080830160008301518482036000860152610a908282610a3a565b91505060208301518482036020860152610aaa8282610a3a565b91505060408301518482036040860152610ac48282610a3a565b91505060608301518482036060860152610ade8282610a3a565b9150508091505092915050565b610af481610c42565b82525050565b6000610b068284610a09565b915081905092915050565b60006020820190508181036000830152610b2b818461095b565b905092915050565b60006020820190508181036000830152610b4d81846109d0565b905092915050565b6000602082019050610b6a6000830184610aeb565b92915050565b6000604051905081810181811067ffffffffffffffff82111715610b9357600080fd5b8060405250919050565b600067ffffffffffffffff821115610bb457600080fd5b601f19601f8301169050602081019050919050565b6000602082019050919050565b600081519050919050565b600081519050919050565b600081519050919050565b6000602082019050919050565b600082825260208201905092915050565b600082825260208201905092915050565b600082825260208201905092915050565b600081905092915050565b6000819050919050565b82818337600083830152505050565b60005b83811015610c79578082015181840152602081019050610c5e565b83811115610c88576000848401525b50505050565b6000601f19601f830116905091905056fea265627a7a72305820ccb14fb1b853e52f7cf2552233cb500bf212b3e9cabdcf7b22e3649d4c39c3116c6578706572696d656e74616cf50037",
  "source": "pragma solidity ^0.5.0;\npragma experimental ABIEncoderV2;\n\ncontract Store {\n  struct Record{\n    string fileName;\n    string date;\n    string fileHash;\n    string by;\n  }\n  mapping(string => Record[]) medicalHistory;\n  mapping(string => string) secretKey;\n\n  function setKey(string memory _id, string memory _encryptedKey) public {\n    secretKey[_id] = _encryptedKey;\n  }\n\n  function getKey(string memory _id) public view returns (string memory) {\n    return secretKey[_id];\n  }\n\n  function set(string memory _id, string memory _fileName, string memory _date, string memory _fileHash, string memory _by) public {\n    medicalHistory[_id].push(Record(_fileName,_date,_fileHash,_by));\n  }\n\n  function get(string memory _id) public view returns (Record[] memory) {\n    return medicalHistory[_id];\n  }\n\n  function getCount(string memory _id) public view  returns (uint) {\n    return medicalHistory[_id].length;\n  }\n}",
  "sourcePath": "D:/Pankti/B.E/Project/SmartMed/src/contracts/Store.sol",
  "compiler": {
    "name": "solc",
    "version": "0.5.8+commit.23d335f2.Emscripten.clang"
  },
  "schemaVersion": "3.0.16",
  "updatedAt": "2020-06-16T14:40:36.089Z",
  "devdoc": {
    "methods": {}
  },
  "userdoc": {
    "methods": {}
  }
}