{
  "contractName": "Store",
  "abi": [
    {
      "constant": false,
      "inputs": [
        {
          "name": "_fileHash",
          "type": "string"
        }
      ],
      "name": "set",
      "outputs": [],
      "payable": false,
      "stateMutability": "nonpayable",
      "type": "function"
    },
    {
      "constant": true,
      "inputs": [],
      "name": "get",
      "outputs": [
        {
          "name": "",
          "type": "string[]"
        }
      ],
      "payable": false,
      "stateMutability": "view",
      "type": "function"
    }
  ],
  "bytecode": "0x608060405234801561001057600080fd5b506104f6806100206000396000f3fe608060405234801561001057600080fd5b50600436106100365760003560e01c80634ed3885e1461003b5780636d4ce63c14610057575b600080fd5b61005560048036036100509190810190610299565b610075565b005b61005f6100b7565b60405161006c919061039c565b60405180910390f35b60008190806001815401808255809150509060018203906000526020600020016000909192909190915090805190602001906100b29291906101a0565b505050565b60606000805480602002602001604051908101604052809291908181526020016000905b82821015610197578382906000526020600020018054600181600116156101000203166002900480601f0160208091040260200160405190810160405280929190818152602001828054600181600116156101000203166002900480156101835780601f1061015857610100808354040283529160200191610183565b820191906000526020600020905b81548152906001019060200180831161016657829003601f168201915b5050505050815260200190600101906100db565b50505050905090565b828054600181600116156101000203166002900490600052602060002090601f016020900481019282601f106101e157805160ff191683800117855561020f565b8280016001018555821561020f579182015b8281111561020e5782518255916020019190600101906101f3565b5b50905061021c9190610220565b5090565b61024291905b8082111561023e576000816000905550600101610226565b5090565b90565b600082601f83011261025657600080fd5b8135610269610264826103eb565b6103be565b9150808252602083016020830185838301111561028557600080fd5b610290838284610469565b50505092915050565b6000602082840312156102ab57600080fd5b600082013567ffffffffffffffff8111156102c557600080fd5b6102d184828501610245565b91505092915050565b60006102e68383610363565b905092915050565b60006102f982610424565b6103038185610447565b93508360208202850161031585610417565b8060005b85811015610351578484038952815161033285826102da565b945061033d8361043a565b925060208a01995050600181019050610319565b50829750879550505050505092915050565b600061036e8261042f565b6103788185610458565b9350610388818560208601610478565b610391816104ab565b840191505092915050565b600060208201905081810360008301526103b681846102ee565b905092915050565b6000604051905081810181811067ffffffffffffffff821117156103e157600080fd5b8060405250919050565b600067ffffffffffffffff82111561040257600080fd5b601f19601f8301169050602081019050919050565b6000602082019050919050565b600081519050919050565b600081519050919050565b6000602082019050919050565b600082825260208201905092915050565b600082825260208201905092915050565b82818337600083830152505050565b60005b8381101561049657808201518184015260208101905061047b565b838111156104a5576000848401525b50505050565b6000601f19601f830116905091905056fea265627a7a723058201cb3129a168fd762a3fd1f5ea02c8a6001e445f1e328f9094c28a76ef5bf425b6c6578706572696d656e74616cf50037",
  "source": "pragma solidity ^0.5.0;\r\npragma experimental ABIEncoderV2;\r\n\r\ncontract Store {\r\n  string[] medicalHistory;\r\n\r\n  function set(string memory _fileHash) public {\r\n    medicalHistory.push(_fileHash);\r\n  }\r\n\r\n  function get() public view returns (string[] memory) {\r\n    return medicalHistory;\r\n  }\r\n}",
  "sourcePath": "D:/PANKTI/B.E/Project/store/src/contracts/Store.sol",
  "compiler": {
    "name": "solc",
    "version": "0.5.8+commit.23d335f2.Emscripten.clang"
  },
  "schemaVersion": "3.0.16",
  "updatedAt": "2020-03-07T11:29:31.615Z",
  "devdoc": {
    "methods": {}
  },
  "userdoc": {
    "methods": {}
  }
}