{
  "contractName": "Store",
  "abi": [
    {
      "constant": false,
      "inputs": [
        {
          "name": "_id",
          "type": "string"
        },
        {
          "name": "_encryptedKey",
          "type": "string"
        }
      ],
      "name": "setKey",
      "outputs": [],
      "payable": false,
      "stateMutability": "nonpayable",
      "type": "function"
    },
    {
      "constant": true,
      "inputs": [
        {
          "name": "_id",
          "type": "string"
        }
      ],
      "name": "getKey",
      "outputs": [
        {
          "name": "",
          "type": "string"
        }
      ],
      "payable": false,
      "stateMutability": "view",
      "type": "function"
    },
    {
      "constant": false,
      "inputs": [
        {
          "name": "_id",
          "type": "string"
        },
        {
          "name": "_fileName",
          "type": "string"
        },
        {
          "name": "_date",
          "type": "string"
        },
        {
          "name": "_fileHash",
          "type": "string"
        },
        {
          "name": "_by",
          "type": "string"
        }
      ],
      "name": "set",
      "outputs": [],
      "payable": false,
      "stateMutability": "nonpayable",
      "type": "function"
    },
    {
      "constant": true,
      "inputs": [
        {
          "name": "_id",
          "type": "string"
        }
      ],
      "name": "get",
      "outputs": [
        {
          "components": [
            {
              "name": "fileName",
              "type": "string"
            },
            {
              "name": "date",
              "type": "string"
            },
            {
              "name": "fileHash",
              "type": "string"
            },
            {
              "name": "by",
              "type": "string"
            }
          ],
          "name": "",
          "type": "tuple[]"
        }
      ],
      "payable": false,
      "stateMutability": "view",
      "type": "function"
    },
    {
      "constant": true,
      "inputs": [
        {
          "name": "_id",
          "type": "string"
        }
      ],
      "name": "getCount",
      "outputs": [
        {
          "name": "",
          "type": "uint256"
        }
      ],
      "payable": false,
      "stateMutability": "view",
      "type": "function"
    },
    {
      "constant": false,
      "inputs": [
        {
          "name": "_id",
          "type": "string"
        }
      ],
      "name": "clear",
      "outputs": [],
      "payable": false,
      "stateMutability": "nonpayable",
      "type": "function"
    }
  ],
  "bytecode": "0x608060405234801561001057600080fd5b50610df8806100206000396000f3fe608060405234801561001057600080fd5b50600436106100625760003560e01c806316cf503e146100675780631a0b8d5514610083578063693ec85e1461009f578063d37aec92146100cf578063e6c780dd146100ff578063f001a5511461011b575b600080fd5b610081600480360361007c91908101906108ca565b61014b565b005b61009d60048036036100989190810190610977565b610178565b005b6100b960048036036100b491908101906108ca565b610260565b6040516100c69190610c30565b60405180910390f35b6100e960048036036100e491908101906108ca565b610565565b6040516100f69190610c52565b60405180910390f35b6101196004803603610114919081019061090b565b610625565b005b610135600480360361013091908101906108ca565b61065c565b6040516101429190610c74565b60405180910390f35b60008160405161015b9190610c19565b908152602001604051809103902060006101759190610686565b50565b6000856040516101889190610c19565b90815260200160405180910390206040518060800160405280868152602001858152602001848152602001838152509080600181540180825580915050906001820390600052602060002090600402016000909192909190915060008201518160000190805190602001906101fe9291906106aa565b50602082015181600101908051906020019061021b9291906106aa565b5060408201518160020190805190602001906102389291906106aa565b5060608201518160030190805190602001906102559291906106aa565b505050505050505050565b60606000826040516102729190610c19565b9081526020016040518091039020805480602002602001604051908101604052809291908181526020016000905b8282101561055a5783829060005260206000209060040201604051806080016040529081600082018054600181600116156101000203166002900480601f01602080910402602001604051908101604052809291908181526020018280546001816001161561010002031660029004801561035c5780601f106103315761010080835404028352916020019161035c565b820191906000526020600020905b81548152906001019060200180831161033f57829003601f168201915b50505050508152602001600182018054600181600116156101000203166002900480601f0160208091040260200160405190810160405280929190818152602001828054600181600116156101000203166002900480156103fe5780601f106103d3576101008083540402835291602001916103fe565b820191906000526020600020905b8154815290600101906020018083116103e157829003601f168201915b50505050508152602001600282018054600181600116156101000203166002900480601f0160208091040260200160405190810160405280929190818152602001828054600181600116156101000203166002900480156104a05780601f10610475576101008083540402835291602001916104a0565b820191906000526020600020905b81548152906001019060200180831161048357829003601f168201915b50505050508152602001600382018054600181600116156101000203166002900480601f0160208091040260200160405190810160405280929190818152602001828054600181600116156101000203166002900480156105425780601f1061051757610100808354040283529160200191610542565b820191906000526020600020905b81548152906001019060200180831161052557829003601f168201915b505050505081525050815260200190600101906102a0565b505050509050919050565b60606001826040516105779190610c19565b90815260200160405180910390208054600181600116156101000203166002900480601f0160208091040260200160405190810160405280929190818152602001828054600181600116156101000203166002900480156106195780601f106105ee57610100808354040283529160200191610619565b820191906000526020600020905b8154815290600101906020018083116105fc57829003601f168201915b50505050509050919050565b806001836040516106369190610c19565b9081526020016040518091039020908051906020019061065792919061072a565b505050565b6000808260405161066d9190610c19565b9081526020016040518091039020805490509050919050565b50805460008255600402906000526020600020908101906106a791906107aa565b50565b828054600181600116156101000203166002900490600052602060002090601f016020900481019282601f106106eb57805160ff1916838001178555610719565b82800160010185558215610719579182015b828111156107185782518255916020019190600101906106fd565b5b5090506107269190610809565b5090565b828054600181600116156101000203166002900490600052602060002090601f016020900481019282601f1061076b57805160ff1916838001178555610799565b82800160010185558215610799579182015b8281111561079857825182559160200191906001019061077d565b5b5090506107a69190610809565b5090565b61080691905b8082111561080257600080820160006107c9919061082e565b6001820160006107d9919061082e565b6002820160006107e9919061082e565b6003820160006107f9919061082e565b506004016107b0565b5090565b90565b61082b91905b8082111561082757600081600090555060010161080f565b5090565b90565b50805460018160011615610100020316600290046000825580601f106108545750610873565b601f0160209004906000526020600020908101906108729190610809565b5b50565b600082601f83011261088757600080fd5b813561089a61089582610cbc565b610c8f565b915080825260208301602083018583830111156108b657600080fd5b6108c1838284610d6b565b50505092915050565b6000602082840312156108dc57600080fd5b600082013567ffffffffffffffff8111156108f657600080fd5b61090284828501610876565b91505092915050565b6000806040838503121561091e57600080fd5b600083013567ffffffffffffffff81111561093857600080fd5b61094485828601610876565b925050602083013567ffffffffffffffff81111561096157600080fd5b61096d85828601610876565b9150509250929050565b600080600080600060a0868803121561098f57600080fd5b600086013567ffffffffffffffff8111156109a957600080fd5b6109b588828901610876565b955050602086013567ffffffffffffffff8111156109d257600080fd5b6109de88828901610876565b945050604086013567ffffffffffffffff8111156109fb57600080fd5b610a0788828901610876565b935050606086013567ffffffffffffffff811115610a2457600080fd5b610a3088828901610876565b925050608086013567ffffffffffffffff811115610a4d57600080fd5b610a5988828901610876565b9150509295509295909350565b6000610a728383610b92565b905092915050565b6000610a8582610cf5565b610a8f8185610d23565b935083602082028501610aa185610ce8565b8060005b85811015610add5784840389528151610abe8582610a66565b9450610ac983610d16565b925060208a01995050600181019050610aa5565b50829750879550505050505092915050565b6000610afa82610d0b565b610b048185610d45565b9350610b14818560208601610d7a565b610b1d81610dad565b840191505092915050565b6000610b3382610d0b565b610b3d8185610d56565b9350610b4d818560208601610d7a565b80840191505092915050565b6000610b6482610d00565b610b6e8185610d34565b9350610b7e818560208601610d7a565b610b8781610dad565b840191505092915050565b60006080830160008301518482036000860152610baf8282610b59565b91505060208301518482036020860152610bc98282610b59565b91505060408301518482036040860152610be38282610b59565b91505060608301518482036060860152610bfd8282610b59565b9150508091505092915050565b610c1381610d61565b82525050565b6000610c258284610b28565b915081905092915050565b60006020820190508181036000830152610c4a8184610a7a565b905092915050565b60006020820190508181036000830152610c6c8184610aef565b905092915050565b6000602082019050610c896000830184610c0a565b92915050565b6000604051905081810181811067ffffffffffffffff82111715610cb257600080fd5b8060405250919050565b600067ffffffffffffffff821115610cd357600080fd5b601f19601f8301169050602081019050919050565b6000602082019050919050565b600081519050919050565b600081519050919050565b600081519050919050565b6000602082019050919050565b600082825260208201905092915050565b600082825260208201905092915050565b600082825260208201905092915050565b600081905092915050565b6000819050919050565b82818337600083830152505050565b60005b83811015610d98578082015181840152602081019050610d7d565b83811115610da7576000848401525b50505050565b6000601f19601f830116905091905056fea265627a7a72305820490f8efa28f2e0738947e67047f3541e7036e39b7b44dafab149938a6a5426226c6578706572696d656e74616cf50037",
  "source": "pragma solidity ^0.5.0;\npragma experimental ABIEncoderV2;\n\ncontract Store {\n  struct Record{\n    string fileName;\n    string date;\n    string fileHash;\n    string by;\n  }\n  mapping(string => Record[]) medicalHistory;\n  mapping(string => string) secretKey;\n\n  function setKey(string memory _id, string memory _encryptedKey) public {\n    secretKey[_id] = _encryptedKey;\n  }\n\n  function getKey(string memory _id) public view returns (string memory) {\n    return secretKey[_id];\n  }\n\n  function set(string memory _id, string memory _fileName, string memory _date, string memory _fileHash, string memory _by) public {\n    medicalHistory[_id].push(Record(_fileName,_date,_fileHash,_by));\n  }\n\n  function get(string memory _id) public view returns (Record[] memory) {\n    return medicalHistory[_id];\n  }\n\n  function getCount(string memory _id) public view  returns (uint) {\n    return medicalHistory[_id].length;\n  }\n\n  function clear(string memory _id) public {\n    delete medicalHistory[_id];\n  }\n}",
  "sourcePath": "D:/PANKTI/B.E/Project/SmartMed/src/contracts/Store.sol",
  "compiler": {
    "name": "solc",
    "version": "0.5.8+commit.23d335f2.Emscripten.clang"
  },
  "schemaVersion": "3.0.16",
  "updatedAt": "2020-04-06T11:50:59.833Z",
  "devdoc": {
    "methods": {}
  },
  "userdoc": {
    "methods": {}
  }
}