{
  "contractName": "Store",
  "abi": [
    {
      "constant": false,
      "inputs": [
        {
          "name": "_id",
          "type": "string"
        },
        {
          "name": "_fileName",
          "type": "string"
        },
        {
          "name": "_date",
          "type": "string"
        },
        {
          "name": "_fileHash",
          "type": "string"
        }
      ],
      "name": "set",
      "outputs": [],
      "payable": false,
      "stateMutability": "nonpayable",
      "type": "function"
    },
    {
      "constant": true,
      "inputs": [
        {
          "name": "_id",
          "type": "string"
        }
      ],
      "name": "get",
      "outputs": [
        {
          "components": [
            {
              "name": "fileName",
              "type": "string"
            },
            {
              "name": "date",
              "type": "string"
            },
            {
              "name": "fileHash",
              "type": "string"
            }
          ],
          "name": "",
          "type": "tuple[]"
        }
      ],
      "payable": false,
      "stateMutability": "view",
      "type": "function"
    },
    {
      "constant": true,
      "inputs": [
        {
          "name": "_id",
          "type": "string"
        }
      ],
      "name": "getCount",
      "outputs": [
        {
          "name": "",
          "type": "uint256"
        }
      ],
      "payable": false,
      "stateMutability": "view",
      "type": "function"
    },
    {
      "constant": false,
      "inputs": [
        {
          "name": "_id",
          "type": "string"
        }
      ],
      "name": "clear",
      "outputs": [],
      "payable": false,
      "stateMutability": "nonpayable",
      "type": "function"
    }
  ],
  "bytecode": "0x608060405234801561001057600080fd5b50610a2b806100206000396000f3fe608060405234801561001057600080fd5b506004361061004c5760003560e01c806316cf503e14610051578063693ec85e1461006d578063f001a5511461009d578063f60886b5146100cd575b600080fd5b61006b6004803603610066919081019061061b565b6100e9565b005b6100876004803603610082919081019061061b565b610116565b6040516100949190610896565b60405180910390f35b6100b760048036036100b2919081019061061b565b610379565b6040516100c491906108b8565b60405180910390f35b6100e760048036036100e2919081019061065c565b6103a3565b005b6000816040516100f9919061087f565b908152602001604051809103902060006101139190610467565b50565b6060600082604051610128919061087f565b9081526020016040518091039020805480602002602001604051908101604052809291908181526020016000905b8282101561036e5783829060005260206000209060030201604051806060016040529081600082018054600181600116156101000203166002900480601f0160208091040260200160405190810160405280929190818152602001828054600181600116156101000203166002900480156102125780601f106101e757610100808354040283529160200191610212565b820191906000526020600020905b8154815290600101906020018083116101f557829003601f168201915b50505050508152602001600182018054600181600116156101000203166002900480601f0160208091040260200160405190810160405280929190818152602001828054600181600116156101000203166002900480156102b45780601f10610289576101008083540402835291602001916102b4565b820191906000526020600020905b81548152906001019060200180831161029757829003601f168201915b50505050508152602001600282018054600181600116156101000203166002900480601f0160208091040260200160405190810160405280929190818152602001828054600181600116156101000203166002900480156103565780601f1061032b57610100808354040283529160200191610356565b820191906000526020600020905b81548152906001019060200180831161033957829003601f168201915b50505050508152505081526020019060010190610156565b505050509050919050565b6000808260405161038a919061087f565b9081526020016040518091039020805490509050919050565b6000846040516103b3919061087f565b908152602001604051809103902060405180606001604052808581526020018481526020018381525090806001815401808255809150509060018203906000526020600020906003020160009091929091909150600082015181600001908051906020019061042392919061048b565b50602082015181600101908051906020019061044092919061048b565b50604082015181600201908051906020019061045d92919061048b565b5050505050505050565b5080546000825560030290600052602060002090810190610488919061050b565b50565b828054600181600116156101000203166002900490600052602060002090601f016020900481019282601f106104cc57805160ff19168380011785556104fa565b828001600101855582156104fa579182015b828111156104f95782518255916020019190600101906104de565b5b509050610507919061055a565b5090565b61055791905b80821115610553576000808201600061052a919061057f565b60018201600061053a919061057f565b60028201600061054a919061057f565b50600301610511565b5090565b90565b61057c91905b80821115610578576000816000905550600101610560565b5090565b90565b50805460018160011615610100020316600290046000825580601f106105a557506105c4565b601f0160209004906000526020600020908101906105c3919061055a565b5b50565b600082601f8301126105d857600080fd5b81356105eb6105e682610900565b6108d3565b9150808252602083016020830185838301111561060757600080fd5b61061283828461099e565b50505092915050565b60006020828403121561062d57600080fd5b600082013567ffffffffffffffff81111561064757600080fd5b610653848285016105c7565b91505092915050565b6000806000806080858703121561067257600080fd5b600085013567ffffffffffffffff81111561068c57600080fd5b610698878288016105c7565b945050602085013567ffffffffffffffff8111156106b557600080fd5b6106c1878288016105c7565b935050604085013567ffffffffffffffff8111156106de57600080fd5b6106ea878288016105c7565b925050606085013567ffffffffffffffff81111561070757600080fd5b610713878288016105c7565b91505092959194509250565b600061072b8383610812565b905092915050565b600061073e82610939565b6107488185610967565b93508360208202850161075a8561092c565b8060005b858110156107965784840389528151610777858261071f565b94506107828361095a565b925060208a0199505060018101905061075e565b50829750879550505050505092915050565b60006107b38261094f565b6107bd8185610989565b93506107cd8185602086016109ad565b80840191505092915050565b60006107e482610944565b6107ee8185610978565b93506107fe8185602086016109ad565b610807816109e0565b840191505092915050565b6000606083016000830151848203600086015261082f82826107d9565b9150506020830151848203602086015261084982826107d9565b9150506040830151848203604086015261086382826107d9565b9150508091505092915050565b61087981610994565b82525050565b600061088b82846107a8565b915081905092915050565b600060208201905081810360008301526108b08184610733565b905092915050565b60006020820190506108cd6000830184610870565b92915050565b6000604051905081810181811067ffffffffffffffff821117156108f657600080fd5b8060405250919050565b600067ffffffffffffffff82111561091757600080fd5b601f19601f8301169050602081019050919050565b6000602082019050919050565b600081519050919050565b600081519050919050565b600081519050919050565b6000602082019050919050565b600082825260208201905092915050565b600082825260208201905092915050565b600081905092915050565b6000819050919050565b82818337600083830152505050565b60005b838110156109cb5780820151818401526020810190506109b0565b838111156109da576000848401525b50505050565b6000601f19601f830116905091905056fea265627a7a72305820774dc549ac432aef21a69bb25a6c3237504f777d2b5a67ad7f1365a414b0b4806c6578706572696d656e74616cf50037",
  "source": "pragma solidity ^0.5.0;\r\npragma experimental ABIEncoderV2;\r\n\r\ncontract Store {\r\n  struct Record{\r\n    string fileName;\r\n    string date;\r\n    string fileHash;\r\n  }\r\n  mapping(string => Record[]) medicalHistory;\r\n  function set(string memory _id, string memory _fileName, string memory _date, string memory _fileHash) public {\r\n    medicalHistory[_id].push(Record(_fileName,_date,_fileHash));\r\n  }\r\n\r\n  function get(string memory _id) public view returns (Record[] memory) {\r\n    return medicalHistory[_id];\r\n  }\r\n\r\n  function getCount(string memory _id) public view  returns (uint) {\r\n    return medicalHistory[_id].length;\r\n  }\r\n\r\n  function clear(string memory _id) public {\r\n    delete medicalHistory[_id];\r\n  }\r\n}",
  "sourcePath": "D:/PANKTI/B.E/Project/store/src/contracts/Store.sol",
  "compiler": {
    "name": "solc",
    "version": "0.5.8+commit.23d335f2.Emscripten.clang"
  },
  "schemaVersion": "3.0.16",
  "updatedAt": "2020-03-09T06:20:37.283Z",
  "devdoc": {
    "methods": {}
  },
  "userdoc": {
    "methods": {}
  }
}